:020000040000FA
:10000000180400202D0100004D010000D500000063
:1000100000000000000000000000000000000000E0
:10002000000000000000000000000000510100007E
:100030000000000000000000530100005501000016
:100040005701000057010000570100005701000050
:100050005701000057010000570100005701000040
:100060005701000057010000570100005701000030
:100070005701000057010000570100005701000020
:100080005701000057010000570100005701000010
:100090005701000057010000570100005701000000
:1000A00057010000570100005701000057010000F0
:1000B00057010000570100005701000057010000E0
:1000C0000348854600F086F800480047FD0500001B
:1000D000180400207046400702D4EFF3088001E0C6
:1000E000EFF3098081690B88094A934202D10431F8
:1000F0008161704704207146084202D0EFF3098005
:1001000001E0EFF308807146024A1047FEE7000065
:10011000ABBE00003D020000ABBE01E00020704716
:10012000002A00D010600120704700000A480B49E7
:1001300001600B4901600B4901600B4A0B491160DA
:10014000002101600A4880470A480047FEE7FEE7B1
:10015000FEE7FEE7FEE7FEE7000100505900000061
:10016000160000008800000024000050A55A00007E
:10017000D5020000C1000000F0B51FB4002782B016
:1001800005460E464024009719E02246284631468F
:1001900000F042F8049A059B801A99410FD310464B
:1001A0001946224600F028F82D1A8E4122460120D9
:1001B000002100F021F8009A3F184A4100922046A1
:1001C000641E0028E1DC009938462A46334607B011
:1001D000F0BD0000064C0125064E05E02046E36810
:1001E00007C82B4398471034B442F7D3FFF76CFF8E
:1001F000E40700000408000010B5202A04DB0146D3
:10020000203A9140002010BD914020239C1A0346C3
:10021000E3401943904010BD10B5202A04DB084686
:10022000203AD040002110BD0B46D340D0402024BE
:10023000A21A91400843194610BD0000044603A0CD
:1002400000F04AF8204600F079FAFEE7496E2048AF
:10025000617264204661756C742048616E646C65DF
:10026000720A000070B5124C104E217800257054AF
:10027000491CC9B221707554491C102903D20A289F
:1002800001D0002810D1002208490420FFF744FFC4
:10029000002808D1002303E0F05C00F00BF85B1CA1
:1002A00020788342F8DB257070BD00000800002034
:1002B0000000002006498A691202FCD408600A285E
:1002C00004D188690002FCD40D200860704700004A
:1002D00000000540704700000FB410B503A9044B9F
:1002E000044A029800F018F810BC08BC04B0184783
:1002F000F10500000400002002E008C8121F08C138
:10030000002AFAD170477047002001E001C1121F96
:10031000002AFBD170470000FFB58FB004460F469E
:10032000002647E1252858D10025641CA54A012153
:10033000009523780846203B98400346134202D09C
:100340000543641CF5E720782E2815D104200543C9
:10035000641C20782A280AD101CF641C00900BE08D
:1003600000990A22514330394018641C00902078CB
:10037000014630390929F3D920786C280ED004DCE5
:100380004C2813D06A2812D104E074280ED07A28A1
:100390000DD10BE001204005054307E001210905CF
:1003A00062780D43824201D1641C6D18641C207870
:1003B0008646692848D008DC00286ED058286FD0BF
:1003C00063280FD0642808D13EE070286DD07328D0
:1003D00011D075285FD0782862D0129A1199904771
:1003E000761CE6E001CF694608720020487202A838
:1003F0000190012003E001CF01900020C043690774
:100400000CD5002500E06D1C00998D420FDA854265
:10041000F9DB0199495D0029F5D108E0002500E0EC
:100420006D1C8542FCDB0199495D0029F8D17619E4
:1004300007E0019801990078491C0191129A1199DD
:1004400090476D1EF5D2B4E00A20029000216802A8
:10045000400F039102280CD001CFC1178446002918
:100460000EDA6246084652420021814194462D2010
:1004700009E0FF1DFF08FF00796838680837EDE7DD
:10048000280504D52B206A461074012032E0E807C5
:1004900030D02020F7E70A2003E08FE000E004E0FE
:1004A000102000210391029007E01020029000210B
:1004B000042005430820039100906802400F0228A1
:1004C0001DD001CF0021844600200D90280712D5B1
:1004D000704670281AD0029A1020039B42401A439B
:1004E00009D16046084306D030206A461074704631
:1004F000507402200D907046582811D00BE0FF1D5B
:10050000FF08FF00796838680837DCE740206A4652
:10051000107401200D902CA001900DA80E900DE0FC
:100520002EA0F9E76046039B029AFFF725FE019B88
:1005300084469B5C0E9A521E0E92137060460843CE
:10054000F0D10E9805A9081A20300190680701D54E
:10055000009801E0012000900199884201DD401AD5
:1005600000E000200025009006E004A8129A405DFB
:1005700011999047761C6D1C0D988542F5DB04E0BF
:10058000129A302011999047761C0099481E0090CD
:100590000029F5DC08E00E980E990078491C0E91B0
:1005A000129A11999047761C0199481E01900029D2
:1005B000F1DC641C2078002800D0B3E6304613B08C
:1005C000F0BD0000092801003031323334353637B0
:1005D000383961626364656600000000303132338F
:1005E000343536373839414243444546000000002F
:1005F00010B50446FFF736FE204610BD59231621DC
:10060000494A882002E01360116010601468012CD0
:10061000F9D146490868012318430860C868C00733
:10062000FCD00869C008C0000861886900090001A1
:1006300088613F4D286803231B079843286028687A
:100640006B0518432860486907231B0298434861DB
:100650004869FF230133184348618868042318431D
:100660008860344803681B0A1B0203600368840225
:100670002343036004680323DB069C430460036890
:10068000C40223430360046803029C4304600368BC
:100690000124240423430360A610466003688403F6
:1006A0002343036005273F077B6B441523437B638C
:1006B0001D4FC03F3B690224A3433B614B690724A4
:1006C0002403A3434B614B69441423434B618B6860
:1006D000082423438B60016A090A09020162016A46
:1006E000830219430162036A0321C9068B43036233
:1006F000016A030319430162036A01028B43036227
:10070000016A6303194301620B494162016A830371
:100710001943016200211160C168B142FCD1A9688E
:100720007140A960F8E7000000010050000200508D
:1007300080400050000001407017000010B50446D2
:10074000016810A0FFF7C8FD11A06168FFF7C4FDA4
:1007500012A0A168FFF7C0FD13A0E168FFF7BCFD80
:1007600014A02169FFF7B8FD15A06169FFF7B4FD7A
:1007700016A0A169FFF7B0FD17A0E169FFF7ACFD76
:1007800010BD0000723020203D20307825780A000E
:10079000723120203D20307825780A0072322020E6
:1007A0003D20307825780A00723320203D203078B3
:1007B00025780A00723132203D20307825780A00F1
:1007C0006C7220203D20307825780A00706320204C
:1007D0003D20307825780A00707372203D203078F3
:1007E00025780A000408000000000020080000002E
:1007F000F80200000C0800000800002010040000AF
:0C080000080300000000000000000000E1
:040000050000012DC9
:00000001FF
