:020000040000FA
:10000000180400202D0100004D010000D500000063
:1000100000000000000000000000000000000000E0
:10002000000000000000000000000000510100007E
:100030000000000000000000530100005501000016
:100040005701000057010000570100005701000050
:100050005701000057010000570100005701000040
:100060005701000057010000570100005701000030
:100070005701000057010000570100005701000020
:100080005701000057010000570100005701000010
:100090005701000057010000570100005701000000
:1000A00057010000570100005701000057010000F0
:1000B00057010000570100005701000057010000E0
:1000C0000348854600F086F800480047C106000056
:1000D000180400207046400702D4EFF3088001E0C6
:1000E000EFF3098081690B88094A934202D10431F8
:1000F0008161704704207146084202D0EFF3098005
:1001000001E0EFF308807146024A1047FEE7000065
:10011000ABBE00003D020000ABBE01E00020704716
:10012000002A00D010600120704700000A480B49E7
:1001300001600B4901600B4901600B4A0B491160DA
:10014000002101600A4880470A480047FEE7FEE7B1
:10015000FEE7FEE7FEE7FEE7000100505900000061
:10016000160000008800000024000050A55A00007E
:1001700099030000C1000000F0B51FB4002782B051
:1001800005460E464024009719E02246284631468F
:1001900000F042F8049A059B801A99410FD310464B
:1001A0001946224600F028F82D1A8E4122460120D9
:1001B000002100F021F8009A3F184A4100922046A1
:1001C000641E0028E1DC009938462A46334607B011
:1001D000F0BD0000064C0125064E05E02046E36810
:1001E00007C82B4398471034B442F7D3FFF76CFF8E
:1001F000A4080000C408000010B5202A04DB014652
:10020000203A9140002010BD914020239C1A0346C3
:10021000E3401943904010BD10B5202A04DB084686
:10022000203AD040002110BD0B46D340D0402024BE
:10023000A21A91400843194610BD0000044603A0CD
:1002400000F0ACF8204600F0D9FAFEE7496E2048ED
:10025000617264204661756C742048616E646C65DF
:10026000720A000010B50C46B021084300F01AF8DD
:100270002009103000F016F82007000F00F012F8E7
:1002800010BD30B500210846FFF7ECFF0024212502
:100290006D01002000F01AF8641C24B2AC42F8DBB7
:1002A00030BD000008498A6801231A438A60086249
:1002B0000868184308600868C007FCD188684008CF
:1002C00040008860704700000040134009498B6877
:1002D000012213438B60FF3001300862086810432D
:1002E00008600868C007FCD1886840084000886042
:1002F000704700000040134000B5E220FFF7D2FF36
:10030000A120FFF7CFFFEB20FFF7CCFF8120FFF705
:10031000C9FFA020FFF7C6FFC020FFF7C3FFAF2033
:10032000FFF7C0FF00BD000070B5124C104E2178E1
:1003300000257054491CC9B221707554491C1029FC
:1003400003D20A2801D0002810D100220849042035
:10035000FFF7E2FE002808D1002303E0F05C00F084
:100360000BF85B1C20788342F8DB257070BD000021
:10037000080000200000002006498A691202FCD40F
:1003800008600A2804D188690002FCD40D200860A6
:100390007047000000000540704700000FB410B522
:1003A00003A9044B044A029800F018F810BC08BCDA
:1003B00004B01847B50600000400002002E008C899
:1003C000121F08C1002AFAD170477047002001E0CF
:1003D00001C1121F002AFBD170470000FFB58FB08A
:1003E00004460F46002647E1252858D10025641C05
:1003F000A54A0121009523780846203B98400346F2
:10040000134202D00543641CF5E720782E2815D14D
:1004100004200543641C20782A280AD101CF641CDB
:1004200000900BE000990A22514330394018641CB7
:1004300000902078014630390929F3D920786C28BA
:100440000ED004DC4C2813D06A2812D104E07428A2
:100450000ED07A280DD10BE001204005054307E0BE
:100460000121090562780D43824201D1641C6D1897
:10047000641C20788646692848D008DC00286ED0A5
:1004800058286FD063280FD0642808D13EE0702828
:100490006DD0732811D075285FD0782862D0129A59
:1004A00011999047761CE6E001CF6946087200205A
:1004B000487202A80190012003E001CF01900020C2
:1004C000C04369070CD5002500E06D1C00998D42E2
:1004D0000FDA8542F9DB0199495D0029F5D108E081
:1004E000002500E06D1C8542FCDB0199495D002977
:1004F000F8D1761907E0019801990078491C01911B
:10050000129A119990476D1EF5D2B4E00A2002901C
:1005100000216802400F039102280CD001CFC117BF
:10052000844600290EDA6246084652420021814183
:1005300094462D2009E0FF1DFF08FF007968386808
:100540000837EDE7280504D52B206A4610740120F2
:1005500032E0E80730D02020F7E70A2003E08FE000
:1005600000E004E0102000210391029007E0102039
:1005700002900021042005430820039100906802A6
:10058000400F02281DD001CF0021844600200D908D
:10059000280712D5704670281AD0029A1020039BA3
:1005A00042401A4309D16046084306D030206A46CB
:1005B00010747046507402200D907046582811D067
:1005C0000BE0FF1DFF08FF00796838680837DCE79B
:1005D00040206A46107401200D902CA001900DA8B7
:1005E0000E900DE02EA0F9E76046039B029AFFF7FC
:1005F000C3FD019B84469B5C0E9A521E0E921370A3
:1006000060460843F0D10E9805A9081A20300190E1
:10061000680701D5009801E0012000900199884207
:1006200001DD401A00E000200025009006E004A84B
:10063000129A405D11999047761C6D1C0D98854269
:10064000F5DB04E0129A302011999047761C00994E
:10065000481E00900029F5DC08E00E980E990078FD
:10066000491C0E91129A11999047761C0199481EC7
:1006700001900029F1DC641C2078002800D0B3E64A
:10068000304613B0F0BD000009280100303132338C
:1006900034353637383961626364656600000000BE
:1006A00030313233343536373839414243444546A8
:1006B0000000000010B50446FFF736FE204610BDCE
:1006C00010B5592016224A49882302E008600A60C2
:1006D0000B600C68012CF9D14648026801231A43CB
:1006E0000260C268D207FCD0026A0123DB049A438D
:1006F0000262026ADB109A430262026A520A5202E2
:100700000262026A08231A430262026ADB039A4306
:100710000262C2685207FCD50269D208D2000261A7
:100720000269022422430261826912091201826174
:100730008268A4032243826000200860052000072D
:10074000C16B22111143C163C16B94102143C1637A
:10075000C16BD4102143C163274801681403A1432E
:1007600001600168D402A1430160016899430160FE
:1007700001689301994301600168114301600168B8
:1007800052109143016001680322120291430160FB
:100790000168F82291430160016848221143016019
:1007A000016804221143016018214160FFF7A4FD94
:1007B000FFF767FD02210020FFF754FDF020FFF74F
:1007C00085FD81210020FFF74DFD0F20FFF77EFD05
:1007D00081210720FFF746FD3320FFF777FD022137
:1007E0000720FFF73FFD5520FFF770FD002010BDEB
:1007F00000010050000200500040134010B50446B4
:10080000016810A0FFF7CAFD11A06168FFF7C6FDDF
:1008100012A0A168FFF7C2FD13A0E168FFF7BEFDBB
:1008200014A02169FFF7BAFD15A06169FFF7B6FDB5
:1008300016A0A169FFF7B2FD17A0E169FFF7AEFDB1
:1008400010BD0000723020203D20307825780A004D
:10085000723120203D20307825780A007232202025
:100860003D20307825780A00723320203D203078F2
:1008700025780A00723132203D20307825780A0030
:100880006C7220203D20307825780A00706320208B
:100890003D20307825780A00707372203D20307832
:1008A00025780A00C40800000000002008000000AD
:1008B000BC030000CC080000080000201004000069
:0C08C000CC03000000000000000000005D
:040000050000012DC9
:00000001FF
