:020000040000FA
:10000000480400202D0100004D010000D500000033
:1000100000000000000000000000000000000000E0
:10002000000000000000000000000000510100007E
:100030000000000000000000530100005501000016
:100040005701000057010000570100005701000050
:100050005701000057010000570100005701000040
:100060005701000057010000570100005701000030
:100070005701000057010000570100005701000020
:100080005701000057010000570100005701000010
:100090005701000057010000570100005701000000
:1000A00057010000570100005701000057010000F0
:1000B00057010000570100005701000057010000E0
:1000C0000348854600F09CF800480047AD09000051
:1000D000480400207046400702D4EFF3088001E096
:1000E000EFF3098081690B88094A934202D10431F8
:1000F0008161704704207146084202D0EFF3098005
:1001000001E0EFF308807146024A1047FEE7000065
:10011000ABBE000025050000ABBE01E0002070472B
:10012000002A00D010600120704700000A480B49E7
:1001300001600B4901600B4901600B4A0B491160DA
:10014000002101600A4880470A480047FEE7FEE7B1
:10015000FEE7FEE7FEE7FEE7000100505900000061
:10016000160000008800000024000050A55A00007E
:1001700085060000C100000030B50B460146002096
:100180002022012409E00D46D5409D4205D31D469D
:100190009540491B2546954040191546521E002D95
:1001A000F1DC30BDF0B51FB4002782B005460E4625
:1001B0004024009719E022462846314600F042F8D4
:1001C000049A059B801A99410FD31046194622467E
:1001D00000F028F82D1A8E4122460120002100F05F
:1001E00021F8009A3F184A4100922046641E0028D8
:1001F000E1DC009938462A46334607B0F0BD0000DE
:10020000064C0125064E05E02046E36807C82B434F
:1002100098471034B442F7D3FFF756FF9C0A00000A
:10022000BC0A000010B5202A04DB0146203A9140A8
:10023000002010BD914020239C1A0346E34019433F
:10024000904010BD10B5202A04DB0846203AD0406B
:10025000002110BD0B46D340D0402024A21A91406B
:100260000843194610BD0000F0B507000C4656487B
:1002700085B054490162554E016813D004221143E0
:100280000160102000F024F90120C00402905048C1
:10029000042503904F485049201888420DD800206B
:1002A00004901CE0012211430160104600F010F997
:1002B0000020022503960290ECE7484848492018A0
:1002C000884203D801206400049008E0454845496D
:1002D00020184942884249D80320A40004900026EF
:1002E000F64300200090019021E029460398FFF793
:1002F00043FF3D493D4A4118914217D20222354BF6
:10030000014651435B1CCF185B429F420AD8A14271
:1003100001D90B1B00E0631AB34203D21E00009503
:10032000019203D03249521C8A42E8D96D1C212D1A
:10033000DBD90498029980030843009901224902FD
:100340009202891A08430199891E08431E490862CE
:10035000042000F0BDF804990098491C414303981B
:10036000FFF70AFF0199484305B0F0BD002F0FD0F9
:10037000204915480162042000F0AAF81EA0006878
:1003800000901148016A0013014203D00020EBE7FE
:100390001A49EEE7080300D50D4E880301D5304613
:1003A000E2E70804800F6A46105CCA058904C90E9A
:1003B000891CD20D4143921CB0085043FFF7DCFE6C
:1003C0008000D1E70000010000020050001BB700D0
:1003D00000805101FF1E0AFAFFE0F5057F0F05FDC1
:1003E0007FF0FA02C08782FEFF95E7FFBF77CC005F
:1003F000010200006FD60000010202042EC20000BC
:1004000002490A6802430A60704700000002005077
:10041000F8B51B4CE56810210D401A49884202D8F6
:100420004910884200D208462168042631432160E1
:10043000E168C906FCD52169072211432161216ABF
:1004400001221204114321622168C907014604D028
:100450000020FFF709FF074607E00120C004FFF76F
:1004600003FFE5680746102005400021022000F048
:100470000BF8002D02D12068B04320603846F8BD4B
:100480000002005080F0FA0270B5104CE5681026AA
:100490002268354004231A432260E268D206FCD564
:1004A000226907231A432261A269120912010A4331
:1004B000A261216999430143216100F09BF8002D5D
:1004C00002D12068B043206070BD000000020050DF
:1004D00010B504460749084A05E00B46491E002BA3
:1004E00001DC002010BDD36820469843F5D10120DF
:1004F00010BD0000804F120000020050F0B5002334
:1005000001273C469C400C4208D005685C0003264D
:10051000A640B5431646A640354305605B1C102B2C
:10052000EFD3F0BD044603A000F0AEF8204600F083
:1005300061FAFEE7496E2048617264204661756C7D
:10054000742048616E646C65720A000010B5592110
:1005500016220A4C882002E0216022602060236875
:10056000012BF9D10420FFF74BFF1020FFF7B0FF5C
:100570000348FFF74DFF0020206010BD0001005030
:1005800080F0FA0270B5124C104E2178002570549C
:10059000491CC9B221707554491C102903D20A287C
:1005A00001D0002810D1002208490420FFF7B4FD33
:1005B000002808D1002303E0F05C00F00BF85B1C7E
:1005C00020788342F8DB257070BD000034000020E5
:1005D0002C00002006498A691202FCD408600A280F
:1005E00004D188690002FCD40D2008607047000027
:1005F0000000054038B51DA000681D4C0090216A20
:100600002013014201D0002016E0080301D519484B
:1006100000E019488A030FD40A04920F6B469B5CD2
:10062000CA058904D20DC90E921C891C8008594341
:100630005043FFF7A1FD8000104DA86021694907D4
:10064000490F022903D0880029460C310858A169B6
:100650000907090F491CFFF78FFD094928604A1057
:100660008018FFF789FD686038BD000001020204B0
:100670000002005000805101001BB7000000002064
:1006800040420F00704700000FB410B503A9044B9F
:10069000044A029800F018F810BC08BC04B01847CF
:1006A000A10900003000002002E008C8121F08C1A4
:1006B000002AFAD170477047002001E001C1121FE3
:1006C000002AFBD170470000FFB58FB004460F46EB
:1006D000002647E1252858D10025641CA54A0121A0
:1006E000009523780846203B98400346134202D0E9
:1006F0000543641CF5E720782E2815D10420054316
:10070000641C20782A280AD101CF641C00900BE0D9
:1007100000990A22514330394018641C0090207817
:10072000014630390929F3D920786C280ED004DC31
:100730004C2813D06A2812D104E074280ED07A28ED
:100740000DD10BE001204005054307E0012109051B
:1007500062780D43824201D1641C6D18641C2078BC
:100760008646692848D008DC00286ED058286FD00B
:1007700063280FD0642808D13EE070286DD073281C
:1007800011D075285FD0782862D0129A11999047BD
:10079000761CE6E001CF694608720020487202A884
:1007A0000190012003E001CF01900020C0436907C0
:1007B0000CD5002500E06D1C00998D420FDA8542B2
:1007C000F9DB0199495D0029F5D108E0002500E039
:1007D0006D1C8542FCDB0199495D0029F8D1761931
:1007E00007E0019801990078491C0191129A11992A
:1007F00090476D1EF5D2B4E00A20029000216802F5
:10080000400F039102280CD001CFC1178446002964
:100810000EDA6246084652420021814194462D205C
:1008200009E0FF1DFF08FF00796838680837EDE729
:10083000280504D52B206A461074012032E0E80711
:1008400030D02020F7E70A2003E08FE000E004E04A
:10085000102000210391029007E010200290002157
:10086000042005430820039100906802400F0228ED
:100870001DD001CF0021844600200D90280712D5FD
:10088000704670281AD0029A1020039B42401A43E7
:1008900009D16046084306D030206A46107470467D
:1008A000507402200D907046582811D00BE0FF1DA7
:1008B000FF08FF00796838680837DCE740206A469F
:1008C000107401200D902CA001900DA80E900DE049
:1008D0002EA0F9E76046039B029AFFF763FC019B99
:1008E00084469B5C0E9A521E0E921370604608431B
:1008F000F0D10E9805A9081A20300190680701D59B
:10090000009801E0012000900199884201DD401A21
:1009100000E000200025009006E004A8129A405D47
:1009200011999047761C6D1C0D988542F5DB04E00B
:10093000129A302011999047761C0099481E009019
:100940000029F5DC08E00E980E990078491C0E91FC
:10095000129A11999047761C0199481E019000291E
:10096000F1DC641C2078002800D0B3E6304613B0D8
:10097000F0BD0000092801003031323334353637FC
:1009800038396162636465660000000030313233DB
:10099000343536373839414243444546000000007B
:1009A00010B50446FFF7EEFD204610BDFFF7CEFD63
:1009B00001220C4C150329462046FFF79FFD0A48EB
:1009C000052603680948434309480021A2686A4094
:1009D000A2604361816106610269D203FCD50161B5
:1009E000F4E700008040005004000020A0860100D1
:1009F00000E000E010B50446016810A0FFF744FED7
:100A000011A06168FFF740FE12A0A168FFF73CFE4D
:100A100013A0E168FFF738FE14A02169FFF734FE48
:100A200015A06169FFF730FE16A0A169FFF72CFE43
:100A300017A0E169FFF728FE10BD000072302020EA
:100A40003D20307825780A00723120203D20307812
:100A500025780A00723220203D20307825780A005F
:100A6000723320203D20307825780A007231322000
:100A70003D20307825780A006C7220203D203078A7
:100A800025780A00706320203D20307825780A0000
:100A9000707372203D20307825780A00BC0A00006F
:100AA0000000002034000000A8060000F00A00004A
:100AB0003400002014040000B806000080F0FA02A0
:100AC0003200000080F0FA02001BB7000080000036
:100AD00080F0FA0210270000000000000000000073
:100AE0000000000000805101000000000000000034
:040000050000012DC9
:00000001FF
